{
  "_format": "hh-sol-artifact-1",
  "contractName": "TaskContract",
  "sourceName": "contracts/Greeter.sol",
  "abi": [
    {
      "inputs": [],
      "stateMutability": "nonpayable",
      "type": "constructor"
    },
    {
      "inputs": [
        {
          "internalType": "bytes32",
          "name": "name",
          "type": "bytes32"
        },
        {
          "internalType": "bytes32",
          "name": "address_",
          "type": "bytes32"
        },
        {
          "internalType": "address",
          "name": "medical_address",
          "type": "address"
        }
      ],
      "name": "AddMedicals",
      "outputs": [],
      "stateMutability": "nonpayable",
      "type": "function"
    },
    {
      "inputs": [
        {
          "internalType": "string",
          "name": "medicine_name",
          "type": "string"
        },
        {
          "internalType": "uint256",
          "name": "quantity",
          "type": "uint256"
        },
        {
          "internalType": "address",
          "name": "patient_address",
          "type": "address"
        },
        {
          "internalType": "uint256",
          "name": "date",
          "type": "uint256"
        },
        {
          "internalType": "uint256",
          "name": "year",
          "type": "uint256"
        },
        {
          "internalType": "uint256",
          "name": "month",
          "type": "uint256"
        }
      ],
      "name": "AddMedicineByDocter",
      "outputs": [],
      "stateMutability": "nonpayable",
      "type": "function"
    },
    {
      "inputs": [
        {
          "internalType": "string",
          "name": "type_medicine",
          "type": "string"
        },
        {
          "internalType": "string",
          "name": "name_medicine",
          "type": "string"
        },
        {
          "internalType": "uint256",
          "name": "quanity_medicine",
          "type": "uint256"
        }
      ],
      "name": "AddMedicineByMedical",
      "outputs": [],
      "stateMutability": "nonpayable",
      "type": "function"
    },
    {
      "inputs": [
        {
          "internalType": "address",
          "name": "patient",
          "type": "address"
        },
        {
          "internalType": "string",
          "name": "name",
          "type": "string"
        }
      ],
      "name": "AddPatient",
      "outputs": [],
      "stateMutability": "nonpayable",
      "type": "function"
    },
    {
      "inputs": [
        {
          "internalType": "address",
          "name": "object_address",
          "type": "address"
        }
      ],
      "name": "FindPosition",
      "outputs": [
        {
          "internalType": "uint256",
          "name": "",
          "type": "uint256"
        }
      ],
      "stateMutability": "nonpayable",
      "type": "function"
    },
    {
      "inputs": [
        {
          "internalType": "address",
          "name": "patient_address",
          "type": "address"
        }
      ],
      "name": "GetAllMedicine",
      "outputs": [
        {
          "components": [
            {
              "internalType": "string",
              "name": "medicine_name",
              "type": "string"
            },
            {
              "internalType": "uint256",
              "name": "quantity",
              "type": "uint256"
            },
            {
              "internalType": "address",
              "name": "patient_address",
              "type": "address"
            },
            {
              "internalType": "uint256",
              "name": "date",
              "type": "uint256"
            },
            {
              "internalType": "uint256",
              "name": "year",
              "type": "uint256"
            },
            {
              "internalType": "uint256",
              "name": "month",
              "type": "uint256"
            },
            {
              "internalType": "bool",
              "name": "is_done",
              "type": "bool"
            }
          ],
          "internalType": "struct TaskContract.Medicine[]",
          "name": "",
          "type": "tuple[]"
        }
      ],
      "stateMutability": "view",
      "type": "function"
    },
    {
      "inputs": [
        {
          "internalType": "address",
          "name": "patient_address",
          "type": "address"
        },
        {
          "internalType": "uint256",
          "name": "date",
          "type": "uint256"
        },
        {
          "internalType": "uint256",
          "name": "month",
          "type": "uint256"
        },
        {
          "internalType": "uint256",
          "name": "year",
          "type": "uint256"
        },
        {
          "internalType": "uint256",
          "name": "substract",
          "type": "uint256"
        },
        {
          "internalType": "string",
          "name": "name",
          "type": "string"
        }
      ],
      "name": "SubstractMedicine",
      "outputs": [],
      "stateMutability": "nonpayable",
      "type": "function"
    },
    {
      "inputs": [],
      "name": "chairperson",
      "outputs": [
        {
          "internalType": "address",
          "name": "",
          "type": "address"
        }
      ],
      "stateMutability": "view",
      "type": "function"
    },
    {
      "inputs": [],
      "name": "count_medical",
      "outputs": [
        {
          "internalType": "uint256",
          "name": "",
          "type": "uint256"
        }
      ],
      "stateMutability": "view",
      "type": "function"
    },
    {
      "inputs": [],
      "name": "count_medicine",
      "outputs": [
        {
          "internalType": "uint256",
          "name": "",
          "type": "uint256"
        }
      ],
      "stateMutability": "view",
      "type": "function"
    },
    {
      "inputs": [],
      "name": "getAllmedicine",
      "outputs": [
        {
          "components": [
            {
              "internalType": "string",
              "name": "type_medicine",
              "type": "string"
            },
            {
              "internalType": "string",
              "name": "name_medicine",
              "type": "string"
            },
            {
              "internalType": "uint256",
              "name": "quanity_medicine",
              "type": "uint256"
            }
          ],
          "internalType": "struct TaskContract.Medical_Medicine[]",
          "name": "",
          "type": "tuple[]"
        }
      ],
      "stateMutability": "view",
      "type": "function"
    },
    {
      "inputs": [
        {
          "internalType": "uint256",
          "name": "",
          "type": "uint256"
        }
      ],
      "name": "medical_medicine",
      "outputs": [
        {
          "internalType": "string",
          "name": "type_medicine",
          "type": "string"
        },
        {
          "internalType": "string",
          "name": "name_medicine",
          "type": "string"
        },
        {
          "internalType": "uint256",
          "name": "quanity_medicine",
          "type": "uint256"
        }
      ],
      "stateMutability": "view",
      "type": "function"
    },
    {
      "inputs": [
        {
          "internalType": "uint256",
          "name": "",
          "type": "uint256"
        }
      ],
      "name": "medicals",
      "outputs": [
        {
          "internalType": "bytes32",
          "name": "name",
          "type": "bytes32"
        },
        {
          "internalType": "bytes32",
          "name": "address_",
          "type": "bytes32"
        },
        {
          "internalType": "uint256",
          "name": "index",
          "type": "uint256"
        },
        {
          "internalType": "address",
          "name": "medical_address",
          "type": "address"
        }
      ],
      "stateMutability": "view",
      "type": "function"
    },
    {
      "inputs": [
        {
          "internalType": "uint256",
          "name": "",
          "type": "uint256"
        }
      ],
      "name": "medicines",
      "outputs": [
        {
          "internalType": "string",
          "name": "medicine_name",
          "type": "string"
        },
        {
          "internalType": "uint256",
          "name": "quantity",
          "type": "uint256"
        },
        {
          "internalType": "address",
          "name": "patient_address",
          "type": "address"
        },
        {
          "internalType": "uint256",
          "name": "date",
          "type": "uint256"
        },
        {
          "internalType": "uint256",
          "name": "year",
          "type": "uint256"
        },
        {
          "internalType": "uint256",
          "name": "month",
          "type": "uint256"
        },
        {
          "internalType": "bool",
          "name": "is_done",
          "type": "bool"
        }
      ],
      "stateMutability": "view",
      "type": "function"
    },
    {
      "inputs": [],
      "name": "number_patients",
      "outputs": [
        {
          "internalType": "uint256",
          "name": "",
          "type": "uint256"
        }
      ],
      "stateMutability": "view",
      "type": "function"
    },
    {
      "inputs": [
        {
          "internalType": "address",
          "name": "",
          "type": "address"
        }
      ],
      "name": "patients",
      "outputs": [
        {
          "internalType": "string",
          "name": "name",
          "type": "string"
        },
        {
          "internalType": "bool",
          "name": "present",
          "type": "bool"
        },
        {
          "internalType": "address",
          "name": "patient_address",
          "type": "address"
        }
      ],
      "stateMutability": "view",
      "type": "function"
    }
  ],
  "bytecode": "0x608060405260006001556000600255600060035534801561001f57600080fd5b50336000806101000a81548173ffffffffffffffffffffffffffffffffffffffff021916908373ffffffffffffffffffffffffffffffffffffffff1602179055506126888061006f6000396000f3fe608060405234801561001057600080fd5b50600436106101005760003560e01c80635bca4bfa11610097578063c85e766d11610066578063c85e766d146102c6578063e2a35760146102fc578063e2cc799214610318578063f92d7a111461033657610100565b80635bca4bfa1461024057806380756e7e1461025c5780639ba5a82e14610278578063b9f80a511461029657610100565b80633707b7d4116100d35780633707b7d4146101a457806348bf06ee146101d45780634f2b33b1146101f25780635240bfaf1461020e57610100565b80630869cfbc146101055780630cbf3f1d14610137578063182072b0146101535780632e4176cf14610186575b600080fd5b61011f600480360381019061011a919061186c565b610354565b60405161012e9392919061195c565b60405180910390f35b610151600480360381019061014c9190611b05565b610433565b005b61016d60048036038101906101689190611bae565b61067d565b60405161017d9493929190611c03565b60405180910390f35b61018e6106dd565b60405161019b9190611c48565b60405180910390f35b6101be60048036038101906101b9919061186c565b610701565b6040516101cb9190611c63565b60405180910390f35b6101dc6108e4565b6040516101e99190611c63565b60405180910390f35b61020c60048036038101906102079190611c7e565b6108ea565b005b61022860048036038101906102239190611bae565b610b3d565b60405161023793929190611d27565b60405180910390f35b61025a60048036038101906102559190611d6c565b610c87565b005b61027660048036038101906102719190611e23565b610d18565b005b610280610eef565b60405161028d9190611fe8565b60405180910390f35b6102b060048036038101906102ab919061186c565b61107c565b6040516102bd9190612186565b60405180910390f35b6102e060048036038101906102db9190611bae565b6113b9565b6040516102f397969594939291906121a8565b60405180910390f35b6103166004803603810190610311919061221e565b6114c0565b005b6103206116f6565b60405161032d9190611c63565b60405180910390f35b61033e6116fc565b60405161034b9190611c63565b60405180910390f35b6007602052806000526040600020600091509050806000018054610377906122a9565b80601f01602080910402602001604051908101604052809291908181526020018280546103a3906122a9565b80156103f05780601f106103c5576101008083540402835291602001916103f0565b820191906000526020600020905b8154815290600101906020018083116103d357829003601f168201915b5050505050908060010160009054906101000a900460ff16908060010160019054906101000a900473ffffffffffffffffffffffffffffffffffffffff16905083565b3373ffffffffffffffffffffffffffffffffffffffff1660008054906101000a900473ffffffffffffffffffffffffffffffffffffffff1673ffffffffffffffffffffffffffffffffffffffff16146104c1576040517f08c379a00000000000000000000000000000000000000000000000000000000081526004016104b89061234d565b60405180910390fd5b600760008573ffffffffffffffffffffffffffffffffffffffff1673ffffffffffffffffffffffffffffffffffffffff16815260200190815260200160002060010160009054906101000a900460ff16610550576040517f08c379a0000000000000000000000000000000000000000000000000000000008152600401610547906123b9565b60405180910390fd5b60056040518060e001604052808881526020018781526020018673ffffffffffffffffffffffffffffffffffffffff16815260200185815260200184815260200183815260200160001515815250908060018154018082558091505060019003906000526020600020906007020160009091909190915060008201518160000190805190602001906105e3929190611702565b506020820151816001015560408201518160020160006101000a81548173ffffffffffffffffffffffffffffffffffffffff021916908373ffffffffffffffffffffffffffffffffffffffff160217905550606082015181600301556080820151816004015560a0820151816005015560c08201518160060160006101000a81548160ff0219169083151502179055505050505050505050565b6004818154811061068d57600080fd5b90600052602060002090600402016000915090508060000154908060010154908060020154908060030160009054906101000a900473ffffffffffffffffffffffffffffffffffffffff16905084565b60008054906101000a900473ffffffffffffffffffffffffffffffffffffffff1681565b6000806000905060008054906101000a900473ffffffffffffffffffffffffffffffffffffffff1673ffffffffffffffffffffffffffffffffffffffff168373ffffffffffffffffffffffffffffffffffffffff1614156107695760019050809150506108df565b60005b60035481101561082d578373ffffffffffffffffffffffffffffffffffffffff16600760008673ffffffffffffffffffffffffffffffffffffffff1673ffffffffffffffffffffffffffffffffffffffff16815260200190815260200160002060010160019054906101000a900473ffffffffffffffffffffffffffffffffffffffff1673ffffffffffffffffffffffffffffffffffffffff16141561081a576002915081925050506108df565b808061082590612408565b91505061076c565b5060005b6004805490508110156108d8578373ffffffffffffffffffffffffffffffffffffffff166004828154811061086957610868612451565b5b906000526020600020906004020160030160009054906101000a900473ffffffffffffffffffffffffffffffffffffffff1673ffffffffffffffffffffffffffffffffffffffff1614156108c5576003915081925050506108df565b80806108d090612408565b915050610831565b5060009150505b919050565b60025481565b60005b600580549050811015610b34578673ffffffffffffffffffffffffffffffffffffffff166005828154811061092557610924612451565b5b906000526020600020906007020160020160009054906101000a900473ffffffffffffffffffffffffffffffffffffffff1673ffffffffffffffffffffffffffffffffffffffff161480156109b9575081805190602001206005828154811061099157610990612451565b5b90600052602060002090600702016000016040516109af919061251f565b6040518091039020145b15610b215782600582815481106109d3576109d2612451565b5b90600052602060002090600702016001015410610ab65782600582815481106109ff576109fe612451565b5b906000526020600020906007020160010154610a1b9190612536565b60058281548110610a2f57610a2e612451565b5b906000526020600020906007020160010181905550600060058281548110610a5a57610a59612451565b5b9060005260206000209060070201600101541415610ab157600160058281548110610a8857610a87612451565b5b906000526020600020906007020160060160006101000a81548160ff0219169083151502179055505b610b20565b600060058281548110610acc57610acb612451565b5b906000526020600020906007020160010181905550600160058281548110610af757610af6612451565b5b906000526020600020906007020160060160006101000a81548160ff0219169083151502179055505b5b8080610b2c90612408565b9150506108ed565b50505050505050565b60068181548110610b4d57600080fd5b9060005260206000209060030201600091509050806000018054610b70906122a9565b80601f0160208091040260200160405190810160405280929190818152602001828054610b9c906122a9565b8015610be95780601f10610bbe57610100808354040283529160200191610be9565b820191906000526020600020905b815481529060010190602001808311610bcc57829003601f168201915b505050505090806001018054610bfe906122a9565b80601f0160208091040260200160405190810160405280929190818152602001828054610c2a906122a9565b8015610c775780601f10610c4c57610100808354040283529160200191610c77565b820191906000526020600020905b815481529060010190602001808311610c5a57829003601f168201915b5050505050908060020154905083565b600660405180606001604052808581526020018481526020018381525090806001815401808255809150506001900390600052602060002090600302016000909190919091506000820151816000019080519060200190610ce9929190611702565b506020820151816001019080519060200190610d06929190611702565b50604082015181600201555050505050565b3373ffffffffffffffffffffffffffffffffffffffff1660008054906101000a900473ffffffffffffffffffffffffffffffffffffffff1673ffffffffffffffffffffffffffffffffffffffff1614610da6576040517f08c379a0000000000000000000000000000000000000000000000000000000008152600401610d9d9061234d565b60405180910390fd5b60005b600480549050811015610dfc578360048281548110610dcb57610dca612451565b5b9060005260206000209060040201600001541415610de95750610eea565b8080610df490612408565b915050610da9565b50600460405180608001604052808581526020018481526020016001600254610e25919061256a565b81526020018373ffffffffffffffffffffffffffffffffffffffff16815250908060018154018082558091505060019003906000526020600020906004020160009091909190915060008201518160000155602082015181600101556040820151816002015560608201518160030160006101000a81548173ffffffffffffffffffffffffffffffffffffffff021916908373ffffffffffffffffffffffffffffffffffffffff16021790555050506001600254610ee3919061256a565b6002819055505b505050565b60606006805480602002602001604051908101604052809291908181526020016000905b828210156110735783829060005260206000209060030201604051806060016040529081600082018054610f46906122a9565b80601f0160208091040260200160405190810160405280929190818152602001828054610f72906122a9565b8015610fbf5780601f10610f9457610100808354040283529160200191610fbf565b820191906000526020600020905b815481529060010190602001808311610fa257829003601f168201915b50505050508152602001600182018054610fd8906122a9565b80601f0160208091040260200160405190810160405280929190818152602001828054611004906122a9565b80156110515780601f1061102657610100808354040283529160200191611051565b820191906000526020600020905b81548152906001019060200180831161103457829003601f168201915b5050505050815260200160028201548152505081526020019060010190610f13565b50505050905090565b6060600060058054905067ffffffffffffffff81111561109f5761109e6119a4565b5b6040519080825280602002602001820160405280156110d857816020015b6110c5611788565b8152602001906001900390816110bd5790505b5090506000805b6005805490508110156112fd578473ffffffffffffffffffffffffffffffffffffffff166005828154811061111757611116612451565b5b906000526020600020906007020160020160009054906101000a900473ffffffffffffffffffffffffffffffffffffffff1673ffffffffffffffffffffffffffffffffffffffff1614156112ea576005818154811061117957611178612451565b5b90600052602060002090600702016040518060e00160405290816000820180546111a2906122a9565b80601f01602080910402602001604051908101604052809291908181526020018280546111ce906122a9565b801561121b5780601f106111f05761010080835404028352916020019161121b565b820191906000526020600020905b8154815290600101906020018083116111fe57829003601f168201915b50505050508152602001600182015481526020016002820160009054906101000a900473ffffffffffffffffffffffffffffffffffffffff1673ffffffffffffffffffffffffffffffffffffffff1673ffffffffffffffffffffffffffffffffffffffff1681526020016003820154815260200160048201548152602001600582015481526020016006820160009054906101000a900460ff1615151515815250508383815181106112d0576112cf612451565b5b602002602001018190525081806112e690612408565b9250505b80806112f590612408565b9150506110df565b5060008167ffffffffffffffff81111561131a576113196119a4565b5b60405190808252806020026020018201604052801561135357816020015b611340611788565b8152602001906001900390816113385790505b50905060005b828110156113ad5783818151811061137457611373612451565b5b602002602001015182828151811061138f5761138e612451565b5b602002602001018190525080806113a590612408565b915050611359565b50809350505050919050565b600581815481106113c957600080fd5b90600052602060002090600702016000915090508060000180546113ec906122a9565b80601f0160208091040260200160405190810160405280929190818152602001828054611418906122a9565b80156114655780601f1061143a57610100808354040283529160200191611465565b820191906000526020600020905b81548152906001019060200180831161144857829003601f168201915b5050505050908060010154908060020160009054906101000a900473ffffffffffffffffffffffffffffffffffffffff16908060030154908060040154908060050154908060060160009054906101000a900460ff16905087565b3373ffffffffffffffffffffffffffffffffffffffff1660008054906101000a900473ffffffffffffffffffffffffffffffffffffffff1673ffffffffffffffffffffffffffffffffffffffff161461154e576040517f08c379a00000000000000000000000000000000000000000000000000000000081526004016115459061234d565b60405180910390fd5b600760008373ffffffffffffffffffffffffffffffffffffffff1673ffffffffffffffffffffffffffffffffffffffff16815260200190815260200160002060010160009054906101000a900460ff16156115de576040517f08c379a00000000000000000000000000000000000000000000000000000000081526004016115d590612632565b60405180910390fd5b60405180606001604052808281526020016001151581526020018373ffffffffffffffffffffffffffffffffffffffff16815250600760008473ffffffffffffffffffffffffffffffffffffffff1673ffffffffffffffffffffffffffffffffffffffff168152602001908152602001600020600082015181600001908051906020019061166d929190611702565b5060208201518160010160006101000a81548160ff02191690831515021790555060408201518160010160016101000a81548173ffffffffffffffffffffffffffffffffffffffff021916908373ffffffffffffffffffffffffffffffffffffffff1602179055509050506001600360008282546116eb919061256a565b925050819055505050565b60035481565b60015481565b82805461170e906122a9565b90600052602060002090601f0160209004810192826117305760008555611777565b82601f1061174957805160ff1916838001178555611777565b82800160010185558215611777579182015b8281111561177657825182559160200191906001019061175b565b5b50905061178491906117dd565b5090565b6040518060e001604052806060815260200160008152602001600073ffffffffffffffffffffffffffffffffffffffff1681526020016000815260200160008152602001600081526020016000151581525090565b5b808211156117f65760008160009055506001016117de565b5090565b6000604051905090565b600080fd5b600080fd5b600073ffffffffffffffffffffffffffffffffffffffff82169050919050565b60006118398261180e565b9050919050565b6118498161182e565b811461185457600080fd5b50565b60008135905061186681611840565b92915050565b60006020828403121561188257611881611804565b5b600061189084828501611857565b91505092915050565b600081519050919050565b600082825260208201905092915050565b60005b838110156118d35780820151818401526020810190506118b8565b838111156118e2576000848401525b50505050565b6000601f19601f8301169050919050565b600061190482611899565b61190e81856118a4565b935061191e8185602086016118b5565b611927816118e8565b840191505092915050565b60008115159050919050565b61194781611932565b82525050565b6119568161182e565b82525050565b6000606082019050818103600083015261197681866118f9565b9050611985602083018561193e565b611992604083018461194d565b949350505050565b600080fd5b600080fd5b7f4e487b7100000000000000000000000000000000000000000000000000000000600052604160045260246000fd5b6119dc826118e8565b810181811067ffffffffffffffff821117156119fb576119fa6119a4565b5b80604052505050565b6000611a0e6117fa565b9050611a1a82826119d3565b919050565b600067ffffffffffffffff821115611a3a57611a396119a4565b5b611a43826118e8565b9050602081019050919050565b82818337600083830152505050565b6000611a72611a6d84611a1f565b611a04565b905082815260208101848484011115611a8e57611a8d61199f565b5b611a99848285611a50565b509392505050565b600082601f830112611ab657611ab561199a565b5b8135611ac6848260208601611a5f565b91505092915050565b6000819050919050565b611ae281611acf565b8114611aed57600080fd5b50565b600081359050611aff81611ad9565b92915050565b60008060008060008060c08789031215611b2257611b21611804565b5b600087013567ffffffffffffffff811115611b4057611b3f611809565b5b611b4c89828a01611aa1565b9650506020611b5d89828a01611af0565b9550506040611b6e89828a01611857565b9450506060611b7f89828a01611af0565b9350506080611b9089828a01611af0565b92505060a0611ba189828a01611af0565b9150509295509295509295565b600060208284031215611bc457611bc3611804565b5b6000611bd284828501611af0565b91505092915050565b6000819050919050565b611bee81611bdb565b82525050565b611bfd81611acf565b82525050565b6000608082019050611c186000830187611be5565b611c256020830186611be5565b611c326040830185611bf4565b611c3f606083018461194d565b95945050505050565b6000602082019050611c5d600083018461194d565b92915050565b6000602082019050611c786000830184611bf4565b92915050565b60008060008060008060c08789031215611c9b57611c9a611804565b5b6000611ca989828a01611857565b9650506020611cba89828a01611af0565b9550506040611ccb89828a01611af0565b9450506060611cdc89828a01611af0565b9350506080611ced89828a01611af0565b92505060a087013567ffffffffffffffff811115611d0e57611d0d611809565b5b611d1a89828a01611aa1565b9150509295509295509295565b60006060820190508181036000830152611d4181866118f9565b90508181036020830152611d5581856118f9565b9050611d646040830184611bf4565b949350505050565b600080600060608486031215611d8557611d84611804565b5b600084013567ffffffffffffffff811115611da357611da2611809565b5b611daf86828701611aa1565b935050602084013567ffffffffffffffff811115611dd057611dcf611809565b5b611ddc86828701611aa1565b9250506040611ded86828701611af0565b9150509250925092565b611e0081611bdb565b8114611e0b57600080fd5b50565b600081359050611e1d81611df7565b92915050565b600080600060608486031215611e3c57611e3b611804565b5b6000611e4a86828701611e0e565b9350506020611e5b86828701611e0e565b9250506040611e6c86828701611857565b9150509250925092565b600081519050919050565b600082825260208201905092915050565b6000819050602082019050919050565b600082825260208201905092915050565b6000611ebe82611899565b611ec88185611ea2565b9350611ed88185602086016118b5565b611ee1816118e8565b840191505092915050565b611ef581611acf565b82525050565b60006060830160008301518482036000860152611f188282611eb3565b91505060208301518482036020860152611f328282611eb3565b9150506040830151611f476040860182611eec565b508091505092915050565b6000611f5e8383611efb565b905092915050565b6000602082019050919050565b6000611f7e82611e76565b611f888185611e81565b935083602082028501611f9a85611e92565b8060005b85811015611fd65784840389528151611fb78582611f52565b9450611fc283611f66565b925060208a01995050600181019050611f9e565b50829750879550505050505092915050565b600060208201905081810360008301526120028184611f73565b905092915050565b600081519050919050565b600082825260208201905092915050565b6000819050602082019050919050565b61203f8161182e565b82525050565b61204e81611932565b82525050565b600060e08301600083015184820360008601526120718282611eb3565b91505060208301516120866020860182611eec565b5060408301516120996040860182612036565b5060608301516120ac6060860182611eec565b5060808301516120bf6080860182611eec565b5060a08301516120d260a0860182611eec565b5060c08301516120e560c0860182612045565b508091505092915050565b60006120fc8383612054565b905092915050565b6000602082019050919050565b600061211c8261200a565b6121268185612015565b93508360208202850161213885612026565b8060005b85811015612174578484038952815161215585826120f0565b945061216083612104565b925060208a0199505060018101905061213c565b50829750879550505050505092915050565b600060208201905081810360008301526121a08184612111565b905092915050565b600060e08201905081810360008301526121c2818a6118f9565b90506121d16020830189611bf4565b6121de604083018861194d565b6121eb6060830187611bf4565b6121f86080830186611bf4565b61220560a0830185611bf4565b61221260c083018461193e565b98975050505050505050565b6000806040838503121561223557612234611804565b5b600061224385828601611857565b925050602083013567ffffffffffffffff81111561226457612263611809565b5b61227085828601611aa1565b9150509250929050565b7f4e487b7100000000000000000000000000000000000000000000000000000000600052602260045260246000fd5b600060028204905060018216806122c157607f821691505b602082108114156122d5576122d461227a565b5b50919050565b7f4f6e6c7920746865204368616972706572736f6e2063616e204769766520616360008201527f6365737320746f20766f74650000000000000000000000000000000000000000602082015250565b6000612337602c836118a4565b9150612342826122db565b604082019050919050565b600060208201905081810360008301526123668161232a565b9050919050565b7f5468652070617469656e7420686173206e6f742020746865206163636f756e74600082015250565b60006123a36020836118a4565b91506123ae8261236d565b602082019050919050565b600060208201905081810360008301526123d281612396565b9050919050565b7f4e487b7100000000000000000000000000000000000000000000000000000000600052601160045260246000fd5b600061241382611acf565b91507fffffffffffffffffffffffffffffffffffffffffffffffffffffffffffffffff821415612446576124456123d9565b5b600182019050919050565b7f4e487b7100000000000000000000000000000000000000000000000000000000600052603260045260246000fd5b600081905092915050565b60008190508160005260206000209050919050565b600081546124ad816122a9565b6124b78186612480565b945060018216600081146124d257600181146124e357612516565b60ff19831686528186019350612516565b6124ec8561248b565b60005b8381101561250e578154818901526001820191506020810190506124ef565b838801955050505b50505092915050565b600061252b82846124a0565b915081905092915050565b600061254182611acf565b915061254c83611acf565b92508282101561255f5761255e6123d9565b5b828203905092915050565b600061257582611acf565b915061258083611acf565b9250827fffffffffffffffffffffffffffffffffffffffffffffffffffffffffffffffff038211156125b5576125b46123d9565b5b828201905092915050565b7f5468652070617469656e7420616c72656164792068617320746865206163636f60008201527f756e740000000000000000000000000000000000000000000000000000000000602082015250565b600061261c6023836118a4565b9150612627826125c0565b604082019050919050565b6000602082019050818103600083015261264b8161260f565b905091905056fea2646970667358221220e852e6129595b56fa880aeaf782f7f543f2d982a34f8f5f94ca2dc824c7f98b564736f6c63430008090033",
  "linkReferences": {},
  "deployedLinkReferences": {}
}